:101C000080F24860322404F0003010068C420C1C34
:101C200036377F400186F0B740008604B740017F19
:101C3000007886EF16B74000B640008AF081FF2694
:101C4000147C00787C00787C00787C00785917251B
:101C5000E40D3332394624FA7C00787EFC55368612
:101C6000FF9777BDFC202514967897778626977680
:101C7000BDFC8BBDFC209678917726E33239BDFC04
:101C80002024FB0C3696779778323937D676D7757D
:101C9000010101017A007526F77A007626F03339C2
:101CA00036BDFC5E25FBBDFC7E7800787800787838
:101CB000007878007896789765966E9774BDFCD01A
:101CC000BDFC5E25FBBDFC7E96789B659774323922
:101CD00036DF6386FC97719674840F97739674440D
:101CE0004444449772DE71A600B72000860C9776B4
:101CF000BDFC8B96739772DE71A6004CB7200086F0
:101D00000C9776BDFC8BDE633239DF6636DE6DA65E
:101D1000009774BDFCD0BDFC5E25F8DE6632393616
:101D2000966F977486A09769BDFCD0BDFC5E243386
:101D30007A006926F39670977486A09769BDFCD0E7
:101D4000BDFC5E241E7A006926F386FFB72000BD25
:101D5000FC5E240F860A9776BDFC8B7C006A26EF1A
:101D60007EFD2032398E00627FA000DE6DDF6FBD08
:101D7000FD1FBDFC7E96782611BDFCA09674976D64
:101D8000BDFCA09674976E7EFD6B81012614BDFD8F
:101D90000A9678810126DBBDFC7EDE6D08DF6D7E54
:101DA000FD8E81022612BDFD0ABDFCA09674DE6D7B
:101DB000A70008DF6D7EFDA681032614BDFD0A96EF
:101DC00078810326ADBDFC7EDE6D09DF6D7EFDBC36
:101DD00081042604DE6D6E00810526037E000181EC
:101DE0000626747F40017F400386FFB74000B7405E
:101DF000028604B74001B74003DE7AE600967FB75B
:101E00004000967E97678A10B7A000F74002D76817
:101E10008A18B7A000967F9774C608D769BDFCD012
:101E20007A006926F89667B7A000DE7E7F40037FC0
:101E300040028604B74003B6400291682705DF6D73
:101E40007EFD6B08DF7EDE7A9C7C270608DF7A7ECB
:101E5000FDE3DF6D7EFD6B8107263D7F40017F4006
:101E60000386FFB740007F40028604B74001B740B9
:101E700003967E8407B7A000967FB74000DE7E08F9
:101E8000DF7EB64002DE7AA7009C7C270608DF7A58
:101E90007EFE71DF6D7EFD6B810826677F4003C685
:101EA00040F74002C604F74003DE7AA6009768B701
:101EB00020007F00677C00677F0066740068240351
:101EC0007C00664FC640F74002C6175A26FDF74011
:101ED00002C6175A26FD4C810925E97D00662609B0
:101EE000811226E0C60B7EFEEBC610D776BDFC8BBA
:101EF0009667810826BF9C7C2704087EFEABDF6DB9
:101F00007EFD6B810926517F40037F40028604B726
:101F10004003DE7A7F00677F0068B6400284802637
:101F2000F9B64002848027F9C60FD776BDFC8BB680
:101F3000400284800D27010C7600687C006796675C
:101F4000810826D69668A700B720009C7C27040845
:101F50007EFF14DF6D7EFD6B810A260F967B9774E2
:101F6000BDFCD0BDFC5E25F87EFD72810B26079678
:101F70007A97747EFF60810C2607967997747EFFAE
:101F800060810D260ADE7CDF6FBDFD1F7EFD728144
:101F90000E2605DE7E7EFF87810F27037EFD65DE30
:101FA0006D09DF6DA600976B860EA700867E976C85
:101FB000D67ADE7C967B369679060F327E006C32BE
:101FC000977932977A32977B32977C32977D329726
:101FD0007E32977FDE6D966BA700DE7EDF6D7EFF23
:0A1FE00087DE6109DF61DF6D20D5A7
:081FF800FFBFFFE10020FD65C1
:00000001FF
